:100000000C945D000C9485000C9485000C94850084
:100010000C9485000C9485000C9485000C9485004C
:100020000C9485000C9485000C9485000C9485003C
:100030000C9485000C9485000C9485000C9485002C
:100040000C9485030C9485000C94F5030C94CF0359
:100050000C9485000C9485000C9485000C9485000C
:100060000C9485000C9485000000000024002700FB
:100070002A0000000000250028002B0004040404CE
:100080000404040402020202020203030303030342
:10009000010204081020408001020408102001021F
:1000A00004081020000000080002010000030407FB
:1000B00000000000000000007E0511241FBECFEFED
:1000C000D8E0DEBFCDBF21E0A6E2B1E001C01D92C5
:1000D000A13DB207E1F711E0A0E0B1E0E2E2F0E11A
:1000E00002C005900D92A632B107D9F710E0CDE518
:1000F000D0E004C02197FE010E941706CC35D1073D
:10010000C9F70E9427040C940F080C94000090E09B
:10011000FC01EC55FF4F2491FC01E057FF4F349157
:10012000FC01E458FF4FE491EE23C9F0222339F09B
:10013000233001F1A8F4213019F1223029F1F0E047
:10014000EE0FFF1FEE58FF4FA591B4918FB7F894B3
:10015000EC91611126C030953E233C938FBF0895EA
:100160002730A9F02830C9F0243049F78091800069
:100170008F7D03C0809180008F7780938000DFCFD8
:1001800084B58F7784BDDBCF84B58F7DFBCF809125
:10019000B0008F778093B000D2CF8091B0008F7D78
:1001A000F9CF3E2BDACFCF93DF9390E0FC01E057FD
:1001B000FF4F249184589F4FFC0184918823D1F0F4
:1001C00090E0880F991FFC01E859FF4FA591B49169
:1001D000FC01EE58FF4FC591D49161110EC09FB73D
:1001E000F8948C91E22FE0958E238C932881E22362
:1001F000E8839FBFDF91CF9108958FB7F894EC917A
:10020000E22BEC938FBFF6CF8E3008F08E508770C4
:10021000806480937C0080917A00806480937A006F
:1002200080917A0086FDFCCF8091780090917900D2
:1002300008953FB7F8948091C9019091CA01A091A7
:10024000CB01B091CC0126B5A89B05C02F3F19F07A
:100250000196A11DB11D3FBFBA2FA92F982F882746
:10026000BC01CD01620F711D811D911D42E0660F21
:10027000771F881F991F4A95D1F708958F929F92F3
:10028000AF92BF92CF92DF92EF92FF924B015C014F
:100290000E9419016B017C010E9419016C197D09F2
:1002A0008E099F09683E734081059105A8F321E0FE
:1002B000821A9108A108B10888EEC80E83E0D81E02
:1002C000E11CF11C81149104A104B10429F7FF90F1
:1002D000EF90DF90CF90BF90AF909F908F90089558
:1002E000AF92BF92CF92DF92EF92FF920F931F9344
:1002F000CF93DF936C017B018B01040F151FEB0182
:100300005E01AE18BF08C017D10759F06991D60138
:10031000ED91FC910190F081E02DC6010995892BAA
:1003200079F7C501DF91CF911F910F91FF90EF9069
:10033000DF90CF90BF90AF900895FC01538D448D16
:10034000252F30E0842F90E0821B930B541710F080
:10035000CF96089501970895FC01918D828D98178D
:1003600061F0A28DAE0FBF2FB11D5D968C91928D65
:100370009F5F9F73928F90E008958FEF9FEF089596
:10038000FC01918D828D981731F0828DE80FF11D5F
:10039000858D90E008958FEF9FEF0895FC01918D7A
:1003A000228D892F90E0805C9F4F821B91098F7373
:1003B0009927089586E291E00E94CE0121E0892BE1
:1003C00009F420E0822F089580E090E0892B29F045
:1003D0000E94DA0181110C9400000895FC01A48DA3
:1003E000A80FB92FB11DA35ABF4F2C91848D90E057
:1003F00001968F739927848FA689B7892C93A0893A
:10040000B1898C91837080648C93938D848D9813C3
:1004100006C00288F389E02D80818F7D8083089556
:10042000EF92FF920F931F93CF93DF93EC0181E044
:10043000888F9B8D8C8D98131AC0E889F9898081EB
:1004400085FF15C09FB7F894EE89FF896083E8891E
:10045000F98980818370806480839FBF81E090E010
:10046000DF91CF911F910F91FF90EF900895F62E9D
:100470000B8D10E00F5F1F4F0F731127E02E8C8D37
:100480008E110CC00FB607FCFACFE889F98980817C
:1004900085FFF5CFCE010E94EE01F1CFEB8DEC0F81
:1004A000FD2FF11DE35AFF4FF0829FB7F8940B8F99
:1004B000EA89FB8980818062CFCFCF93DF93EC0103
:1004C000888D8823B9F0AA89BB89E889F9898C913C
:1004D00085FD03C0808186FD0DC00FB607FCF7CFF8
:1004E0008C9185FFF2CF808185FFEDCFCE010E94F8
:1004F000EE01E9CFDF91CF91089560E085E00E94A1
:10050000870061E070E080E090E00E943E0161E0E1
:1005100085E00E94870069E070E080E090E00C9444
:100520003E0161E085E00E94870061E070E080E0CC
:1005300090E00E943E0160E085E00E94870069E053
:1005400070E080E090E00C943E0160E083E00E9467
:10055000870061E070E080E090E00E943E0161E091
:1005600083E00E94870069E070E080E090E00C94F6
:100570003E0161E083E00E94870061E070E080E07E
:1005800090E00E943E0160E083E00E94870069E005
:1005900070E080E090E00C943E010F931F93CF93A6
:1005A000DF93EC0188819981009759F02A813B8182
:1005B0002617370730F081E0DF91CF911F910F911F
:1005C00008958B016F5F7F4F0E944207009759F09B
:1005D000998388831B830A832C813D81232B59F7C0
:1005E000FC011082E8CF80E0E7CFEF92FF920F93FB
:1005F0001F93CF93DF936115710541F480E0DF9184
:10060000CF911F910F91FF90EF90089541155105E3
:10061000B1F07B01EC010C811D81040F151FB801A5
:100620000E94CD02882351F3288139818C819D81DC
:10063000B701820F931F0E9408081D830C8381E07D
:10064000DECFCF93DF93EC0188819981009711F081
:100650000E94B906198218821D821C821B821A828E
:10066000DF91CF910895CF92DF92EF92FF920F9397
:100670001F93CF93DF93CDB7DEB762970FB6F89491
:10068000DEBF0FBECDBF8C01CB01F80111821082FD
:1006900013821282158214824AE09E012F5F3F4F1F
:1006A0006901B9010E94AB05F60101900020E9F74C
:1006B00031977F01EC18FD08B701C8010E94CD02F7
:1006C000811112C0C8010E94210362960FB6F894EE
:1006D000DEBF0FBECDBFDF91CF911F910F91FF9075
:1006E000EF90DF90CF900895F801F582E482B60193
:1006F000808191810E940808E8CFFC01808191816E
:10070000009711F00C94B90608951F920F920FB63E
:100710000F9211242F933F938F939F93AF93BF9387
:100720008091C5019091C601A091C701B091C80107
:100730003091C40123E0230F2D3758F50196A11DF8
:10074000B11D2093C4018093C5019093C601A0936D
:10075000C701B093C8018091C9019091CA01A091CD
:10076000CB01B091CC010196A11DB11D8093C901AF
:100770009093CA01A093CB01B093CC01BF91AF91EC
:100780009F918F913F912F910F900FBE0F901F90CF
:10079000189526E8230F0296A11DB11DD2CF1F92F6
:1007A0000F920FB60F9211242F933F934F935F93A5
:1007B0006F937F938F939F93AF93BF93EF93FF9329
:1007C00086E291E00E94EE01FF91EF91BF91AF911F
:1007D0009F918F917F916F915F914F913F912F9159
:1007E0000F900FBE0F901F9018951F920F920FB68B
:1007F0000F9211242F938F939F93EF93FF93E09188
:100800003601F09137018081E0913C01F0913D018A
:1008100082FD1BC0908180913F018F5F8F7320917B
:100820004001821741F0E0913F01F0E0EA5DFE4FA8
:10083000958F80933F01FF91EF919F918F912F9121
:100840000F900FBE0F901F9018958081F4CFCF931B
:10085000DF93CDB7DEB762970FB6F894DEBF0FBE59
:10086000CDBF789484B5826084BD84B5816084BD39
:1008700085B5826085BD85B5816085BD80916E003E
:10088000816080936E00109281008091810082606F
:1008900080938100809181008160809381008091AC
:1008A00080008160809380008091B100846080939B
:1008B000B1008091B00081608093B00080917A0097
:1008C000846080937A0080917A00826080937A00BD
:1008D00080917A00816080937A0080917A008068AC
:1008E00080937A001092C100E0913601F0913701B7
:1008F00082E08083E0913201F09133011082E09137
:100900003401F09135018FEC808310923E01E0912B
:100910003A01F0913B0186E08083E0913801F0914B
:100920003901808180618083E0913801F091390143
:10093000808188608083E0913801F0913901808165
:1009400080688083E0913801F091390180818F7D4A
:10095000808360E08FE00E94D30060E080E10E942D
:10096000D30061E083E00E94D30060E082E10E9456
:10097000D30061E085E00E94D30060E084E10E9442
:10098000D30061E08DE00E94D30080E0E82E80E09B
:10099000F82EDD24D3948FE00E940401893C910558
:1009A00014F0D092C30180E10E940401893C9105BA
:1009B00014F01092C3018091C301811196C060E0D0
:1009C0008DE00E94870082E10E9404018C01843640
:1009D00091050CF47AC00E94B9020E94910284E150
:1009E0000E9404015C010E947D020E94A502B501E3
:1009F000CE010D960E943303B801CE0107960E94E6
:100A000033031A8219821C821B821E821D8263E0BC
:100A100070E0CE0101960E94CD0281115BC0CE0133
:100A200001960E9421034B855C856F817885CE01FC
:100A300001960E94F502811104C0CE0101960E9428
:100A4000210345E050E06CE171E0CE0101960E9487
:100A5000F502811104C0CE0101960E94210349894B
:100A60005A896D857E85CE0101960E94F50281111D
:100A700004C0CE0101960E9421034D815E816981EF
:100A80007A8186E291E00E94700142E050E062E2E9
:100A900071E086E291E00E947001CE0101960E9411
:100AA0007D03CE0107960E947D03CE010D960E9424
:100AB0007D03E114F10409F46ECF0E94DA0188236A
:100AC00009F469CF0E94000066CF0E94A5020E942F
:100AD0007D0285CF83E090E09E838D8368E171E0A5
:100AE00089819A810E9408089ECF61E08DE00E9472
:100AF00087000E94B9020E949102DBCFE6E2F1E09A
:100B00001382128288EE93E0A0E0B0E084839583A4
:100B1000A683B7838AE091E09183808385EC90E09F
:100B20009587848784EC90E09787868780EC90E0B7
:100B3000918B808B81EC90E0938B828B82EC90E0A8
:100B4000958B848B86EC90E0978B868B118E128E22
:100B5000138E148E0895BB274A3031F4992322F462
:100B6000BDE2909581959F4F0C94B705BB27FB0183
:100B70005527AA27880F991FAA1FA41710F0A41B96
:100B800083955051B9F7A05DAA3308F0A95DA193F0
:100B9000009779F7B111B1931192CB010C94D00564
:100BA000DC01FC01672F71917723E1F7329704C0D4
:100BB0007C916D9370836291AE17BF07C8F308955F
:100BC0002F923F924F925F926F927F928F929F925D
:100BD000AF92BF92CF92DF92EF92FF920F931F934B
:100BE000CF93DF93CDB7DEB7CA1BDB0B0FB6F894FC
:100BF000DEBF0FBECDBF09942A88398848885F843C
:100C00006E847D848C849B84AA84B984C884DF80AC
:100C1000EE80FD800C811B81AA81B981CE0FD11D90
:100C20000FB6F894DEBF0FBECDBFED010895EE0FF5
:100C3000FF1F0590F491E02D09940F931F93CF931C
:100C4000DF938230910510F482E090E0E091CF01D3
:100C5000F091D00130E020E0B0E0A0E0309799F4CE
:100C60002115310509F44AC0281B390B2430310500
:100C7000D8F58A819B816115710589F1FB01938308
:100C80008283FE0111C04081518102811381481786
:100C90005907E0F04817590799F4109761F0129638
:100CA0000C93129713961C933296CF01DF91CF913C
:100CB0001F910F9108950093CF011093D001F4CFAD
:100CC0002115310551F04217530738F0A901DB0116
:100CD0009A01BD01DF01F801C1CFEF01F9CF909377
:100CE000D0018093CF01CDCFFE01E20FF31F81939E
:100CF00091932250310939832883D7CF2091CD0198
:100D00003091CE01232B41F4209102013091030157
:100D10003093CE012093CD0120910001309101014B
:100D20002115310541F42DB73EB740910401509192
:100D30000501241B350BE091CD01F091CE01E217A6
:100D4000F307A0F42E1B3F0B2817390778F0AC01EE
:100D50004E5F5F4F2417350748F04E0F5F1F5093CB
:100D6000CE014093CD01819391939FCFF0E0E0E0DD
:100D70009CCFCF93DF930097E9F0FC013297138269
:100D80001282A091CF01B091D001ED0130E020E0BE
:100D90001097A1F420813181820F931F2091CD0102
:100DA0003091CE012817390709F061C0F093CE01C8
:100DB000E093CD01DF91CF910895EA01CE17DF07CF
:100DC000E8F54A815B819E0141155105B1F7E901C2
:100DD000FB83EA8349915991C40FD51FEC17FD0796
:100DE00061F4808191810296840F951FE9019983B6
:100DF0008883828193819B838A83F0E0E0E012966E
:100E00008D919C9113970097B9F52D913C91119775
:100E1000CD010296820F931F2091CD013091CE011A
:100E20002817390739F6309751F51092D0011092F2
:100E3000CF01B093CE01A093CD01BCCFD383C283A9
:100E400040815181840F951FC817D90761F44E5F07
:100E50005F4F88819981480F591F518340838A8150
:100E60009B81938382832115310509F0B0CFF093E4
:100E7000D001E093CF019ECFFD01DC01C0CF1382F2
:100E80001282D7CFB0E0A0E0E8E4F7E00C94E205EE
:100E90008C01009751F4CB010E941D068C01C80102
:100EA000CDB7DEB7E0E10C94FE05FC01E60FF71FBD
:100EB0009C0122503109E217F30708F49DC0D901C3
:100EC000CD91DC911197C617D70798F0C530D105A1
:100ED00030F3CE0104978617970708F3C61BD70B8C
:100EE0002297C193D1936D937C93CF010E94B90651
:100EF000D6CF5B01AC1ABD0A4C018C0E9D1EA09191
:100F0000CF01B091D001512C412CF12CE12C109744
:100F100031F58091CD019091CE018815990509F0A8
:100F20005CC04616570608F058C0809100019091A9
:100F30000101009741F48DB79EB740910401509193
:100F40000501841B950BE817F90708F055C0F093CD
:100F5000CE01E093CD01F90171836083A0CF8D9123
:100F60009C91119712966C90129713967C90139700
:100F7000A815B90559F56C0142E0C40ED11CCA147C
:100F8000DB0420F1AC014A195B09DA0112961597CE
:100F900080F06282738251834083D9016D937C9388
:100FA000E114F10471F0D7011396FC93EE931297BC
:100FB00076CF22968C0F9D1FF90191838083F301D8
:100FC000EFCFF093D001E093CF0169CF48165906D7
:100FD00008F42C017D01D3019ACFCB010E941D069C
:100FE0007C01009749F0AE01B8010E94FF07C801DB
:100FF0000E94B906870153CF10E000E050CFFB01FB
:10100000DC0102C001900D9241505040D8F7089584
:10101000FB01DC0101900D920020E1F70895F894A6
:02102000FFCF00
:101022000000D101800000000000100270019D014B
:101032005D02CE01AC01C001613A20002C20623A6F
:0610420020000D0A000071
:00000001FF
